:020000040000FA
:040000003FEF0BF0D3
:100800000031352F31322F323032300023506572B3
:0B0810003A004E69763A0025640000B3
:10081C001EC036F01FC037F020C038F021C039F0B0
:10082C0022C03AF023C03BF024C03CF025C03DF080
:10083C003DBE23EF04F026EF04F0010E27EF04F089
:10084C00000E346E356A34503510D8B430EF04F0E5
:10085C0032EF04F042EF04F03D1E3C1E3B1E3A1EEC
:10086C00391E381E371E366C000E372238223922BC
:10087C003A223B223C223D22000165BF48EF04F0A6
:10088C004AEF04F04BEF04F0669365BF58EF04F0A9
:10089C00655106E16405D8B056EF04F058EF04F04A
:1008AC005EEF04F0000E316E010E306E62EF04F05C
:1008BC0064C030F065C031F062C032F063C033F018
:1008CC0034503510D8A46DEF04F06FEF04F076EFD0
:1008DC0004F066A574EF04F076EF04F079EF04F001
:1008EC003206D8A03306000E3F6E1F0E3E6E000E71
:1008FC00876FFDEF04F03E06D8A03F06680E3E243D
:10090C00D96E000E3F20DA6E36C001F037C002F00F
:10091C0038C003F039C004F03AC005F03BC006F013
:10092C003CC007F03DC008F00A0E096E000E0A6EBE
:10093C00000E0B6E000E0C6E000E0D6E000E0E6E89
:10094C00000E0F6E000E106E1DEC07F001C026F0AD
:10095C0002C027F003C028F004C029F005C02AF01B
:10096C0006C02BF007C02CF008C02DF026C013F0E9
:10097C0028C014F092EC0AF01350300FDF6E3006E2
:10098C00D8A031063206D8A0330636C001F037C0E5
:10099C0002F038C003F039C004F03AC005F03BC097
:1009AC0006F03CC007F03DC008F00A0E096E000EC0
:1009BC000A6E000E0B6E000E0C6E000E0D6E000E0D
:1009CC000E6E000E0F6E000E106E59EC06F001C08C
:1009DC0036F002C037F003C038F004C039F005C05F
:1009EC003AF006C03BF007C03CF008C03DF03FBEFB
:1009FC0008EF05F03F5008E13E04D8A008EF05F0E1
:100A0C000AEF05F03BEF05F036503710381039106F
:100A1C003A103B103C103D10D8A417EF05F019EF1D
:100A2C0005F081EF04F031BE26EF05F0315006E100
:100A3C003004D8B024EF05F026EF05F081EF04F078
:100A4C0033BE31EF05F0335008E13204D8A031EF5A
:100A5C0005F033EF05F03BEF05F0000166B339EF1D
:100A6C0005F03BEF05F081EF04F034503510D8A4BD
:100A7C0042EF05F044EF05F04CEF05F0000166A5E0
:100A8C004AEF05F04CEF05F06AEF05F03E06D8A0F2
:100A9C003F0634503510D8A456EF05F058EF05F04A
:100AAC005EEF05F0000E2F6E2B0E2E6E62EF05F032
:100ABC00000E2F6E2D0E2E6E680E3E24D96E000E7B
:100ACC003F20DA6E2EC0DFFF1CC011F01DC012F0EB
:100ADC00680E3E24136E000E3F20146E32C015F0CB
:100AEC0033C016F034EC08F011C01CF012C01DF02D
:100AFC00120042C0D9FF43C0DAFFDECFF6FFDDCFD4
:100B0C00F7FF0800F550250AD8A48FEF05F091EFF8
:100B1C0005F03DEF06F042C0D9FF43C0DAFFDE2AF4
:100B2C00000EDD22000E0001636F000E626F62C0CA
:100B3C0066F063C067F06469656942C0D9FF43C061
:100B4C00DAFFDECFF6FFDDCFF7FF0800F550640AC1
:100B5C00D8B4B3EF05F0B5EF05F0C7EF05F042C020
:100B6C00D9FF43C0DAFFDECFF6FFDDCFF7FF080079
:100B7C00F550690AD8A4C5EF05F0C7EF05F007EFEB
:100B8C0006F042C0D9FF43C0DAFFDE2A000EDD2298
:100B9C0044C0D9FF45C0DAFFDFCF46F0020EDE2697
:100BAC00DFCF47F0000EDD2246C0D9FF47C0DAFF89
:100BBC00DECF48F0DDCF49F0000E49BEFF0E4A6E85
:100BCC004B6E4C6E4D6E4E6E4F6E40C01CF041C065
:100BDC001DF048C01EF049C01FF04AC020F04BC0A9
:100BEC0021F04CC022F04DC023F04EC024F04FC079
:100BFC0025F00EEC04F01CC040F01DC041F058EF85
:100C0C0006F042C0D9FF43C0DAFFDECFF6FFDDCFDE
:100C1C00F7FF0800F550250AD8A417EF06F019EFD6
:100C2C0006F030EF06F042C0D9FF43C0DAFFDE2AEF
:100C3C00000EDD22000E026E250E016E40C003F088
:100C4C0041C004F0CFEC07F0000E416E010E406E77
:100C5C0058EF06F042C0D9FF43C0DAFFDE2A000E7F
:100C6C00DD22000E416E000E406E58EF06F042C0C1
:100C7C00D9FF43C0DAFFDECFF6FFDDCFF7FF080068
:100C8C00F550016E026A40C003F041C004F0CFEC95
:100C9C0007F042C0D9FF43C0DAFFDE2A000EDD2286
:100CAC002AEF06F01200000E126E10BE62EF06F074
:100CBC0060EF06F074EF06F0101E0F1E0E1E0D1ED8
:100CCC000C1E0B1E0A1E096C000E0A220B220C2293
:100CDC000D220E220F221022010E126E08BE7BEF87
:100CEC0006F079EF06F08DEF06F0081E071E061EC3
:100CFC00051E041E031E021E016C000E022203229E
:100D0C0004220522062207220822010E121A20EEC6
:100D1C0013F0070EDE6AE806FDE209500A100B100C
:100D2C000C100D100E100F101010D8B4A0EF06F010
:100D3C00A2EF06F0F4EF06F0010E116EB0EF06F024
:100D4C00D89009360A360B360C360D360E360F3661
:100D5C001036112A10AEB5EF06F0B7EF06F0A6EF7D
:100D6C0006F0D89013361436153616361736183654
:100D7C0019361A360950015C0A5002580B500358A8
:100D8C000C5004580D5005580E5006580F5007586B
:100D9C0010500858D8A0D5EF06F0D7EF06F0E8EFC2
:100DAC0006F00950015E0A50025A0B50035A0C50BF
:100DBC00045A0D50055A0E50065A0F50075A10502F
:100DCC00085A1380D89010320F320E320D320C327A
:100DDC000B320A320932112EB7EF06F01250D8B48A
:100DEC00FAEF06F0FCEF06F00CEF07F01A1E191ED6
:100DFC00181E171E161E151E141E136C000E142220
:100E0C00152216221722182219221A2213C001F0B9
:100E1C0014C002F015C003F016C004F017C005F0A2
:100E2C0018C006F019C007F01AC008F01200000E26
:100E3C00126E08BE26EF07F024EF07F038EF07F02C
:100E4C00081E071E061E051E041E031E021E016C34
:100E5C00000E022203220422052206220722082267
:100E6C00010E126E10BE3FEF07F03DEF07F04FEF93
:100E7C0007F0101E0F1E0E1E0D1E0C1E0B1E0A1E42
:100E8C00096C000E0A220B220C220D220E220F22BC
:100E9C00102209500A100B100C100D100E100F1010
:100EAC001010D8B45CEF07F05EEF07F0A6EF07F078
:100EBC00010E116E6CEF07F0D89009360A360B361E
:100ECC000C360D360E360F361036112A10AE71EF69
:100EDC0007F073EF07F062EF07F00950015C0A505E
:100EEC0002580B5003580C5004580D5005580E5016
:100EFC0006580F50075810500858D8A088EF07F024
:100F0C008AEF07F09AEF07F00950015E0A50025A77
:100F1C000B50035A0C50045A0D50055A0E50065AD9
:100F2C000F50075A1050085AD89010320F320E3208
:100F3C000D320C320B320A320932112E73EF07F0DC
:100F4C001250D8B4ACEF07F0AEEF07F0BEEF07F0DD
:100F5C00081E071E061E051E041E031E021E016C23
:100F6C00000E022203220422052206220722082256
:100F7C0001C001F002C002F003C003F004C004F091
:100F8C0005C005F006C006F007C007F008C008F061
:100F9C00120003500410D8B4D6EF07F0D8EF07F0C6
:100FAC00E1EF07F003500410D8A4DFEF07F0E1EFF6
:100FBC0007F0E6EF07F001504AEC0BF033EF08F0C6
:100FCC0020EE04F00350D9260450DA22DE50DE1055
:100FDC00D8B4F3EF07F0F5EF07F010EF08F020EEC0
:100FEC0004F00350D9260450DA2210EE02F003501C
:100FFC00E1260450E222DE50E65CE650800A096EDF
:10100C00DE50800A0958D8B00EEF08F010EF08F047
:10101C0033EF08F020EE02F00350D9260450DA2208
:10102C00DECF05F0DDCF06F003C0D9FF04C0DAFF38
:10103C00DECF07F0DDCF08F005500724D96E06503F
:10104C000820DA6E01C0DFFF20EE02F00350D92633
:10105C000450DA22DE2A000EDD221200000166A105
:10106C003AEF08F03CEF08F046EF08F013C00AF036
:10107C0014C00BF011C00CF012C00DF070EC0AF0A3
:10108C0016BE4BEF08F04DEF08F053EF08F015C00B
:10109C001AF016C01BF057EF08F0000E1B6E000E76
:1010AC001A6E000E196E000E186E69EF08F0000E25
:1010BC00026E200E016E11C003F012C004F0CFECD2
:1010CC0007F0184A192A1A50185C1950800A176E22
:1010DC001B50800A1758D8A076EF08F078EF08F06C
:1010EC005DEF08F0000166B17EEF08F080EF08F0CC
:1010FC008AEF08F013C00AF014C00BF011C00CF00A
:10110C0012C00DF070EC0AF013C001F014C002F024
:10111C00EAEC0AF01A500124116E1B500220126ED8
:10112C001200000E0001986F000E976F959095922B
:10113C009594959E959C000E936E819292889286C2
:10114C00700ED312D350FC0B0209D36EC150F00BAE
:10115C000E09C16ECF0EC116C30EC216C050C70BFE
:10116C001009C06EC050F80B0109C06EC09EC28041
:10117C00D0EF08F097C005F098C006F048EC0AF0E4
:10118C0005C097F006C098F097C05EF098C05FF06D
:10119C0018EC09F084B6D5EF08F0D7EF08F0C0EFE3
:1011AC0008F000EF00F0000E0A6E000E096EF9EF69
:1011BC0008F009500524076E0A500620086E07C077
:1011CC00F6FF08C0F7FFF86A070EF76403D00800B3
:1011DC00F55005D0F6CFE1FFF7CFE2FFE750CEECAC
:1011EC000AF0094A0A2A09500524076E0A500620FB
:1011FC00086E07C0F6FF08C0F7FFF86A070EF76421
:10120C0003D00800F55005D0F6CFE1FFF7CFE2FF91
:10121C00E7500009D8A415EF09F017EF09F0DFEF3C
:10122C0008F0120055EC09F0010E046E010E8DEC65
:10123C0009F00C0E056E080E066ED9EC08F0060EC1
:10124C00046E010E8DEC09F0920E586E000E596E64
:10125C00170E5A6E080E5B6E5EC05CF05FC05DF0E0
:10126C001FEC0AF0920E056E000E066ED9EC08F01B
:10127C000A0E046E010E8DEC09F0120E056E080EAE
:10128C00066ED9EC08F0010E046E020E8DEC09F01E
:10129C00010E056E080E066ED9EC08F01200000E59
:1012AC00F1EC09F0340E046EF20EE82EFED7042E8B
:1012BC00FCD7030E2FEC0BF00D0E046EFC0EE82E7B
:1012CC00FED7042EFCD7030E2FEC0BF01D0E046E74
:1012DC00910EE82EFED7042EFCD700F0030E2FEC57
:1012EC000BF0020E2FEC0BF0020E2FEC0BF0080E95
:1012FC002FEC0BF0000E2FEC0BF00C0E2FEC0BF078
:10130C00000E2FEC0BF0060E2FEC0BF01200056EFE
:10131C000504D8A494EF09F096EF09F0A7EF09F0B3
:10132C0004507F0F086E08380F0B066E08500F0B19
:10133C00076E06502FEC0BF007502FEC0BF0BFEFA5
:10134C0009F0020E0518D8A4AEEF09F0B0EF09F0C1
:10135C00BFEF09F00450BF0F086E08380F0B066E74
:10136C0008500F0B076E06502FEC0BF007502FECAC
:10137C000BF0120052C056F053C057F0000E000193
:10138C00616F000E606FDEEF09F050C040F051C08D
:10139C0041F0560E426E000E436E54C044F055C0E0
:1013AC0045F07FEC05F0405000016027415061236F
:1013BC0056C0F6FF57C0F7FF0800F5500009D8A437
:1013CC00EAEF09F0ECEF09F0CBEF09F060C050F058
:1013DC0061C051F01200016E01A0F7EF09F0F9EFB6
:1013EC0009F0FCEF09F0818AFDEF09F0819A01A266
:1013FC0002EF0AF004EF0AF007EF0AF0818808EF19
:10140C000AF0819801A40DEF0AF00FEF0AF012EF29
:10141C000AF0818613EF0AF0819601A618EF0AF004
:10142C001AEF0AF01DEF0AF081841EEF0AF0819486
:10143C0012005C0E00018A6F000E8B6F58C08CF08E
:10144C0059C08DF0000E8F6F000E8E6F000E916FD5
:10145C00000E906F8C0E506E000E516E5AC052F0F2
:10146C005BC053F08A0E546E000E556EC0EC09F042
:10147C0000018E515824D96E8F515920DA6E000E0E
:10148C00DF6E120080A84DEF0AF04FEF0AF069EF03
:10149C000AF0818283908382060E086E130E076E0B
:1014AC00AE0EE82EFED7072EFCD7082EFAD705C0B5
:1014BC0003F006C004F0B2EC0AF003C005F004C05F
:1014CC0006F06BEF0AF08390839205C005F006C01E
:1014DC0006F01200000E106E000E0F6E81EF0AF077
:1014EC000EC001F0026A0CC003F00DC004F0CFEC8A
:1014FC0007F00F4A102A0F500A24D96E10500B20F7
:10150C00DA6EDF500E6E0E50D8A48FEF0AF091EF0A
:10151C000AF076EF0AF0120014BE9FEF0AF0145096
:10152C0006E11304D8B09DEF0AF09FEF0AF0ADEF7F
:10153C000AF013C015F014C016F0151E161E154A2D
:10154C00162A15C013F016C014F0B1EF0AF013C030
:10155C0013F014C014F0120080A6B7EF0AF0B9EF24
:10156C000AF0C5EF0AF003C001F004C002F005EC6C
:10157C000BF001C003F002C004F0C9EF0AF0819235
:10158C0083801FEC0BF003C003F004C004F01200C6
:10159C00046E04500F0B026E0450F00B036E818E20
:1015AC0003380F0BF1EC09F0818C1A0EE82EFED7E4
:1015BC0000D0819C0250F1EC09F0818C1A0EE82EBF
:1015CC00FED700D0819C120001C003F002C004F0D1
:1015DC00F2EF0AF0014A022A01C0D9FF02C0DAFF79
:1015EC00DF50D8A4FCEF0AF0FEEF0AF0F0EF0AF09F
:1015FC000350015C016E04500258026E12000AEF97
:10160C000BF083928384838C80B60FEF0BF011EF79
:10161C000BF007EF0BF0839C8394010E0124016EF9
:10162C00000E0220026E819201C001F002C002F095
:10163C001200838E8382060E026E130E016EAE0EA6
:10164C00E82EFED7012EFCD7022EFAD7839E83926A
:10165C001200036E819E0350F1EC09F0818C0B0E8D
:10166C00026E620EE82EFED7022EFCD700D0819CB3
:10167C00120000EE60F0280EEE6AE806FDE1000EA6
:0A168C00F86E000197EF08F012005D
:020000040020DA
:08000000FFFFFFFFFFFFFFFF00
:020000040030CA
:0E0000000088181EFF0181FF0FC00FE00F40A7
:00000001FF
